:020000040800F2
:1000000000000820A9300008D10F0008D30F000815
:10001000D50F0008D70F0008D90F00080000000016
:10002000000000000000000000000000DB0F0008DE
:10003000DD0F000800000000DF0F0008E10F0008DE
:10004000F9300008F9300008F9300008F9300008EC
:10005000F9300008F9300008F9300008F9300008DC
:10006000F9300008F9300008F9300008F9300008CC
:10007000F9300008F9300008F9300008F9300008BC
:10008000F9300008F9300008F9300008F9300008AC
:10009000F9300008F9300008F9300008F93000089C
:1000A000F9300008F9300008F9300008F93000088C
:1000B000F9300008F9300008F9300008F93000087C
:1000C000F9300008F9300008F9300008F93000086C
:1000D000F9300008F9300008F9300008F93000085C
:1000E000F9300008F9300008F9300008F93000084C
:1000F000F9300008F9300008F9300008F93000083C
:10010000F9300008F9300008F9300008F93000082B
:10011000F9300008F9300008F9300008F93000081B
:10012000F9300008F9300008F9300008F93000080B
:10013000F9300008F9300008F9300008F9300008FB
:10014000F9300008F9300008F9300008F9300008EB
:10015000F9300008F9300008F9300008F9300008DB
:10016000F9300008F9300008F9300008F9300008CB
:10017000F9300008F9300008F930000800000000EC
:10018000F9300008F9300008F9300008F9300008AB
:10019000F9300008F9300008F9300008F93000089B
:1001A000F9300008F9300008F9300008F93000088B
:1001B000F9300008F9300008F9300008F93000087B
:1001C000F9300008F930000800000000F93000089C
:1001D000F9300008F9300008F9300008F93000085B
:1001E000F9300008F9300008F9300008F93000084B
:0801F000F9300008F9300008A5
:1002000010B5054C237833B9044B13B10448AFF350
:1002100000800123237010BD80000020000000003A
:100220001C3A000808B5034B1BB103490348AFF360
:10023000008008BD00000000840000201C3A000877
:1002400001F0FF01102A2BDB10F0070F08D010F887
:10025000013B013A8B422DD010F0070F42B3F6D18B
:10026000F0B441EA012141EA014122F007047FF0A4
:1002700000070023F0E80256083C85EA010586EAFB
:10028000010685FA47F5A3FA87F586FA47F6A5FA37
:1002900087F68EB9EED1F0BC01F0FF0102F0070243
:1002A00032B110F8013B013A83EA010313B1F8D1EE
:1002B0000020704701387047002D06BF35460338CF
:1002C000073815F0010F07D1013015F4807F02BF08
:1002D000013015F4C03F0130F0BC0138704700BF59
:1002E00053B94AB9002908BF00281CBF4FF0FF319D
:1002F0004FF0FF3000F074B9ADF1080C6DE904CE99
:1003000000F006F8DDF804E0DDE9022304B07047F0
:100310002DE9F047089E04468846002B40F0858072
:100320008A42154648D9B2FA82F24AB1C2F1200790
:1003300001FA02F320FA07F7954047EA03089440D0
:100340004FEA154E230CB8FBFEF71FFA85FC0EFB97
:10035000178843EA084307FB0CF1994209D9EB18C7
:1003600007F1FF3080F0E380994240F2E080023FE5
:100370002B445B1AA4B2B3FBFEF00EFB103344EA2D
:10038000034400FB0CFCA44509D92C1900F1FF33F0
:1003900080F0CB80A44540F2C88002382C4440EA6B
:1003A0000740A4EB0C0400271EB1D4400023C6E98B
:1003B00000433946BDE8F087002A53D0B2FA82F2F2
:1003C000002A40F0B680491B4FEA154E1FFA85F807
:1003D0000127B1FBFEFC230C0EFB1C1143EA014379
:1003E00008FB0CF1994207D9EB180CF1FF3002D24F
:1003F000994200F2EC808446591AA3B2B1FBFEF098
:100400000EFB101443EA044408FB00F8A04507D98A
:100410002C1900F1FF3302D2A04500F2DC8018460F
:10042000A4EB080440EA0C40BEE78B4208D9002E3A
:1004300078D00027C6E9000138463946BDE8F08784
:10044000B3FA83F77FB98B4202D3824200F2BD80B8
:10045000841A61EB030301209846002EA9D0C6E957
:100460000048A6E7FFDEC7F12005BB4022FA05FCE5
:100470004CEA030C01FA07F420FA05F821FA05F317
:100480004FEA1C4E48EA0404B3FBFEF9210C0EFBB4
:1004900019331FFA8CF841EA034309FB08FA9A451D
:1004A00002FA07F200FA07F10BD91CEB030309F17A
:1004B000FF3080F088809A4540F28580A9F10209DA
:1004C0006344A3EB0A03A4B2B3FBFEF00EFB1033AC
:1004D00044EA034400FB08F8A04508D91CEB0404D7
:1004E00000F1FF336BD2A04569D90238644440EA79
:1004F0000940A4EB0804A0FB02894C45C6464B46C4
:1005000054D351D0002E69D0B1EB0E0264EB03043A
:1005100004FA05F522FA07F3FC401D43C6E900542E
:10052000002746E73746304643E7184637E7074691
:100530001FE7C2F1200320FA03F7954001FA02F009
:1005400021FA03F34FEA154E3843010CB3FBFEF7D3
:100550001FFA85F80EFB173341EA034107FB08F346
:100560008B4204FA02F407D9691807F1FF3C28D23C
:100570008B4226D9023F2944CB1A81B2B3FBFEF04D
:100580000EFB103341EA034100FB08F38B4207D90D
:10059000691800F1FF3C10D28B420ED90238294471
:1005A000C91A40EA074714E74145ABD2B8EB020E3F
:1005B00069EB0C0201381346A4E76046F0E71846E1
:1005C00095E76746D8E781467BE7384645E7ACF1D3
:1005D000020C2B4410E702382C4421E73746E8E6AA
:1005E000704700BF08B50A230A460146014800F0DB
:1005F00091FE08BDCC04002008B502460121024846
:1006000001F0D9FC08BD00BF0018024008B5024641
:100610001021024801F0CFFC08BD00BF00000240DD
:1006200008B502464FF40061014801F0C4FC08BD62
:100630000004024008B502464FF40041014801F0B1
:10064000BAFC08BD0000024008B501F03DFD08BD40
:1006500010B584B08DF80F00064C0A2300930123D7
:1006600022460DF10F01044800F046FF207804B047
:1006700010BD00BFAC0000203005002008B580216F
:10068000014801F091FC08BD0008024030B595B06A
:100690003422002107A802F055FD0024029403949F
:1006A0000494059406941B4B1A6C42F080521A6411
:1006B0001B6C03F080530093009B174B1A6842F4A5
:1006C00040421A601B6803F440430193019B0225DA
:1006D000079501230A9310230B930D950E940F9306
:1006E0004FF4D87310931195129507A801F06CF888
:1006F00001F068FC0F230293039504944FF4A05378
:1007000005934FF480530693072102A801F0AAFA3B
:1007100015B030BD00380240007000402DE9F04FA8
:1007200085B006460D4600F1320800F13C0B2A4C1C
:100730000F27019700915B463A464146204602F05A
:10074000FBF84FF4784ACDF804A0009543463A46AA
:100750003146204602F0F0F8731E0197009503938E
:100760003A46A6F10A01204602F0E6F85035019714
:100770004FF0D709CDF800905B462A464146204607
:1007800002F0DAF8CDF804A0CDF8009043462A46EE
:100790003146204602F0D0F80197CDF80090039B37
:1007A0002A46F11E204602F0C7F80C49204602F006
:1007B000C7F90321204601F07BFF0022C821204613
:1007C00002F0D1F8064B1A680649204602F086F975
:1007D00005B0BDE8F08F00BFD0030020343A000818
:1007E000B0000020FC5E000870B582B00446104DD9
:1007F0004FF6E0730093062302463221284601F0AB
:10080000DCFF0F260196A31F00933923A4F11202E7
:100810002C21284602F090F8019604F1120300936F
:100820003923A21D2C21284602F086F802B070BDA3
:10083000D003002030B583B03E4C204601F0A4FF29
:100840000F21204601F0D8FC4FF6FF71204601F041
:10085000D1FC0021204601F02BFF204601F0CEFC08
:100860000546204601F0D8FC0F23019300902B464B
:1008700000221146204602F05FF8204601F0BEFC3F
:100880000546204601F0C8FC4FF4FC63019300903C
:100890002B460022D721204602F04EF8264D29464D
:1008A000204602F04DF90321204601F001FF2349C3
:1008B000204602F045F964224B21204602F053F80D
:1008C0001F49204602F00AF92946204602F038F96D
:1008D00082226921204602F046F81A49204602F099
:1008E000FDF8194B1868FFF77FFF184B1B78F3B919
:1008F000174802F08DFA0028F7D00021144802F0C2
:100900008FFA0028F1D0114B01221A70094C0321F3
:10091000204601F0CDFE0F230193962300934FF460
:10092000917332221146204602F006F8DDE703B04B
:1009300030BD00BFD0030020343A000898430008BF
:10094000245F0008305F000808000020A400002099
:100950005C04002070B54FF47A7001F0B5FB2A4CAE
:10096000204601F011FF0F21204601F045FC4FF613
:10097000FF71204601F03EFC0321204601F098FE65
:100980002249204602F0DCF864224121204601F091
:10099000EAFF1F49204602F0A1F81E4E31462046CC
:1009A00002F0CEF882224121204601F0DCFF1A4DF0
:1009B0002A681A49204602F091F83146204602F092
:1009C000BFF896224121204601F0CDFF1449204670
:1009D00002F084F84FF4FA6001F076FB114B4FF40B
:1009E00096721A60104B46221A60104B00221A6051
:1009F00000232B600E4A13600E4A032111600E4A39
:100A00001370FFF717FF70BDD00300209843000854
:100A1000085F0008343A0008B0000020FC5E0008BF
:100A2000145F000804000020080000209C00002043
:100A3000A800002000000020A4000020000000000A
:100A400000B583B001F022FBFFF720FE00F01CF997
:100A500000F010FA00F036FA714C724D0195724BAD
:100A60000093724B724A7349204601F0ADFD724EFD
:100A700001940095714B724A7249304602F0AEF90A
:100A80000F21204601F0B8FB4FF6FF71204601F020
:100A9000B1FB0321204601F00BFE6B4D2946304689
:100AA00002F0B2FA2946204602F04AF8204601F048
:100AB0006BFE14220021204601F055FF63492046B9
:100AC00002F00CF85C4802F0A3F90028FAD05A486A
:100AD000FFF7B0FE3CE00021574802F0A1F90028E2
:100AE0003FD0554D284602F06FFA4D4C56492046EE
:100AF00002F026F800221146204601F034FF2A6851
:100B00005349204601F0EAFF00222821204601F047
:100B10002AFF6A684F49204601F0E0FF4E4B4F4ADA
:100B20001A601EE0FFF716FF3FE0FFF713FF47E0F4
:100B30004B4B1868FFF758FE4A4B1B6813F1310FF7
:100B40004CDB494B1A68494B1B68D31A052B5CD008
:100B5000474B1B78002BFBD0374802F059F900288F
:100B6000B9D1404B1868434A1268801A1860424B4A
:100B70001968FFF7D3FD3A49404A0B6810680344EF
:100B80000B60354991ED007AB7EEC77A9FED226B85
:100B900037EE067BB7EEC77B81ED007ABDEEC77AF4
:100BA00082ED007A103BC62BBCD82E4B1B683E2B27
:100BB00006D8314B1B680633294A12689342B4DACF
:100BC000284B1B683E2BB3D82B4B1B684933244A58
:100BD00012689342ACDAFFF7BDFEA9E7214B4FF450
:100BE00096721A6002F0B6FA254A82FB0032C317E9
:100BF000C3EB6213642202FB130314331E4A136017
:100C0000194A1368013313609BE7184B1A60194A9D
:100C10001368013313609BE79A9999999999D93F81
:100C2000D003002049060008F90500082106000845
:100C30000D060008E50500085C0400207D0600089C
:100C40003506000851060008343A0008405F0008E5
:100C5000645F00086C5F00089C0000200000C0C0BA
:100C60000800002004000020B0000020A8000020A0
:100C7000A4000020000000200C000020A0000020A4
:100C80001F85EB51704700002DE9F04F8DB0002417
:100C90000794089409940A940B946F4B1A6B42F0D2
:100CA00004021A631A6B02F004020192019A1A6B91
:100CB00042F080021A631A6B02F080020292029ADA
:100CC0001A6B42F001021A631A6B02F001020392DE
:100CD000039A1A6B42F040021A631A6B02F0400248
:100CE0000492049A1A6B42F002021A631A6B02F021
:100CF00002020592059A1A6B42F008021A631B6BF6
:100D000003F008030693069B544F224648F2100155
:100D1000384601F050F9DFF858812246412140461B
:100D200001F049F922464FF491414D4801F043F951
:100D30004FF4005BCDF81CB04A4B0893099407A907
:100D4000494801F041F83223079302260896099496
:100D500003250A954FF00B09CDF82C9007A94248BE
:100D600001F032F806230793089609940A95CDF806
:100D70002C9007A9384601F027F848F21003079392
:100D80004FF0010ACDF820A009940A9407A938462B
:100D900001F01AF841230793CDF820A009940A9492
:100DA00007A9404601F010F84FF491430793CDF89E
:100DB00020A009940A9407A9294801F005F8CDF864
:100DC0001CB0089609940A95CDF82C9007A92448E0
:100DD00000F0FAFF4FF440730793089609940A95C0
:100DE00007230B9307A9214800F0EEFF4FF0800A7C
:100DF000CDF81CA00894099407A9404600F0E4FF30
:100E0000CDF81CA00894099407A9174800F0DCFF4E
:100E10004FF4E8530793089609940A950A230B9315
:100E200007A9384600F0D0FF4FF4007307930894E9
:100E3000099407A9384600F0C7FF4FF420530793E1
:100E4000089609940A95CDF82C9007A9404600F021
:100E5000BBFF0DB0BDE8F08F00380240000002403B
:100E6000000402400000111000080240000C024083
:100E70000018024008B51148114B03604FF482730B
:100E80004360002383604FF4E062C260022202618B
:100E9000012242614FF4007282613022C26103621A
:100EA000436283620722C2620363436300F0D5F9A1
:100EB00000B908BDFFF7E6FEFBE700BF30050020E4
:100EC000003C004008B51148114B03604FF4827399
:100ED0004360002383604FF4E062C260022202613B
:100EE000012242614FF4007282610822C2610362F2
:100EF000436283620722C2620363436300F0ADF979
:100F000000B908BDFFF7BEFEFBE700BFCC04002020
:100F10000054014000B58BB000230593069307935E
:100F2000089309930368254A934205D0244A9342C3
:100F300023D00BB05DF804FB224B1A6C42F4004244
:100F40001A641A6C02F400420192019A1A6B42F080
:100F500004021A631B6B03F004030293029B4FF419
:100F6000E053059302230693032308930623099372
:100F700005A9154800F028FFDBE7124B5A6C42F434
:100F800000125A645A6C02F400120392039A1A6B0C
:100F900042F001021A631B6B03F001030493049BEC
:100FA000E023059302230693032308930823099360
:100FB00005A9064800F008FFBBE700BF003C004061
:100FC0000054014000380240000802400000024086
:100FD0007047FEE7FEE7FEE7FEE7704770477047A1
:100FE00008B501F05FF808BD82B00A4B1A6C42F0F8
:100FF00080521A641A6C02F080520092009A5A6C65
:1010000042F480425A645B6C03F480430193019B79
:1010100002B07047003802400649CB6823F4E06311
:101020001B041B0C000200F4E0600343024A1A4355
:10103000CA60704700ED00E00000FA0530B4154BBF
:10104000DB68C3F30223C3F10704042C28BF042484
:101050001D1D062D01D9033B00E000234FF0FF3595
:1010600005FA04F421EA0401994005FA03F322EA9F
:1010700003031943002805DB0901C9B2064B1954C3
:1010800030BC704700F00F000901C9B2034B19547E
:10109000F6E700BF00ED00E000E400E014ED00E042
:1010A0000138B0F1807F0AD2064B5860064AF02121
:1010B00082F823100020986007221A6070470120F0
:1010C000704700BF10E000E000ED00E0F8B5054615
:1010D0000F4616461C462B689B6837EA03030CBF75
:1010E00001230023B34237D0B4F1FF3FF3D000F027
:1010F000E5FF069BC01AA04201D2002CEBD12A6862
:10110000536823F0E00353606B68B3F5827F0BD024
:10111000AB6AB3F5005F14D0012385F85D3000237E
:1011200085F85C30032018E0AB68B3F5806F18BF1A
:10113000B3F5004FECD12A68136823F04003136025
:10114000E6E72A68136823F4005313602A681368DB
:1011500043F400531360DFE70020F8BDF8B50746FD
:101160000D4614461E4602E0B6F1FF3F0BD13A6829
:1011700093682B40A3423BD0B5F5C06F08BF002C4D
:10118000F2D1137BF0E700F099FF069BC01AB04242
:1011900001D2002EEBD13A68536823F0E00353608C
:1011A0007B68B3F5827F0BD0BB6AB3F5005F14D0C8
:1011B000012387F85D30002387F85C30032018E0B6
:1011C000BB68B3F5806F18BFB3F5004FECD13A6838
:1011D000136823F040031360E6E73A68136823F4CA
:1011E000005313603A68136843F400531360DFE759
:1011F0000020F8BD70B582B004460D461646009238
:101200000B4600224FF4C051FFF7A8FFB8B9009673
:101210002B46002280212046FFF758FFB8B90096E0
:101220002B4600224FF4C0612046FFF797FF03468C
:1012300050B1236E43F020032366032304E0236EA2
:1012400043F0200323660323184602B070BD236ECB
:1012500043F0200323660323F6E7002858D010B597
:1012600004460023836290F85D30002B45D00223B2
:1012700084F85D302268136823F040031360E3684C
:10128000B3F5E06F3ED90022B3F5706F18BFB3F528
:10129000E06F01D00021A162216B21B9B3F5E06FAD
:1012A00033D9022323636368A1680B4321690B438D
:1012B00061690B43A16901F400710B43E1690B43C0
:1012C000216A0B43A06A216803430B60638B03F020
:1012D0000403616A0B43616B0B43E1680B432168B4
:1012E00013434B602268D36923F40063D361002069
:1012F0002066012384F85D3010BD80F85C30FFF774
:1013000009FEB4E74FF48052BEE701232363CAE726
:10131000012070472DE9F04182B090F85C40012C2B
:1013200000F0E8801D46174688460446012380F8F1
:101330005C3000F0C3FE064694F85D30DBB2012B52
:1013400040F0C280B7FA87F35B09B8F1000F08BF1D
:101350000123002B40F0C280032384F85D3000237A
:101360002366C4F83880A787E7872364A4F844304D
:10137000A4F846302365E364A368B3F5004F1CD09E
:1013800023681A6812F0400F03D11A6842F0400235
:101390001A60E368B3F5E06F35D963680BB1012FCC
:1013A0001DD1A26B23681288DA60A36B0233A3639A
:1013B000E38F013B9BB2E38711E02268136843F49B
:1013C00080431360DCE700F079FE801BA84203D362
:1013D000B5F1FF3F40F08480002D00F08380E28F64
:1013E00092B2002A5BD023689A6812F0020FEAD00A
:1013F000A26B1288DA60A36B0233A363E28F013A17
:1014000092B2E287EBE763680BB1012F30D1E38F33
:101410009BB2012B0BD9A26B23681288DA60A36BF5
:101420000233A363E38F023B9BB2E38720E0A26B0E
:10143000236812781A73A36B0133A363E38F013B14
:101440009BB2E38714E0A36B1B781373A36B013388
:10145000A363E38F013B9BB2E38709E000F02EFE1C
:10146000801BA84202D3B5F1FF3F3DD1002D3DD0F6
:10147000E28F92B29AB12268936813F0020FEDD016
:10148000E38F9BB2012BDED9A36B1B88D360A36BC8
:101490000233A363E38F023B9BB2E387E8E7324664
:1014A00029462046FFF7A6FE08B120232366A3683D
:1014B00033B901932368DA6801929B680193019B19
:1014C000236EABB9002000E00220012384F85D30D8
:1014D000002384F85C3002B0BDE8F0810120F4E71D
:1014E0000320F2E70320F0E70320EEE70320ECE718
:1014F0000120EAE70220EEE72DE9F843089D90F885
:101500005C40012C00F05D811E46914688460446F1
:10151000012380F85C3000F0D1FD074694F85D307F
:10152000DBB26268012B0AD0B2F5827F40F03181D4
:10153000A268002A40F03781042B40F03681B9FAC6
:1015400089F35B09B8F1000F08BF0123002B40F0BD
:101550002E81002E00F02D8194F85D30DBB2042B3B
:1015600002D0052384F85D3000232366C4F8409040
:10157000A4F84660A4F84460C4F83880E687A687DB
:10158000E3642365E368B3F5E06F01D8012E22D947
:101590002268536823F48053536023681A6812F05A
:1015A000400F03D11A6842F040021A60E368B3F5B5
:1015B000E06F55D963680BB1012E0AD1A26B236885
:1015C0001288DA60A36B0233A363E38F013B9BB203
:1015D000E387012624E02268536843F48053536074
:1015E000DBE723689A6812F0010F10D0B4F84620A8
:1015F00092B262B1DA68236C1A80236C02332364DE
:10160000B4F84630013B9BB2A4F84630012600F006
:1016100055FDC01BA84203D3B5F1FF3F40F0CB807E
:10162000E38F9BB22BB9B4F846309BB2002B00F08D
:10163000A58023689A6812F0020FD2D0E28F92B28E
:10164000002ACED0002ECCD0A26B1288DA60A36B19
:101650000233A363E38F013B9BB2E3870026C0E71D
:1016600063680BB1012E0ED1E38F9BB2012B0CD915
:10167000A26B23681288DA60A36B0233A363E38F43
:10168000023B9BB2E387012645E0A26B23681278F8
:101690001A73A36B0133A363E38F013B9BB2E38710
:1016A000F1E7E28F92B2012A0BD9A26B1288DA60BD
:1016B000A36B0233A363E38F023B9BB2E387002655
:1016C0003AE0A26B12781A73A36B0133A363E38F22
:1016D000013B9BB2E38700262EE02268536843F467
:1016E0008053536001260CE0226C1B7B1370236C2B
:1016F00001332364B4F84630013B9BB2A4F8463072
:10170000012600F0DBFCC01BA84202D3B5F1FF3F6D
:1017100053D1002D53D0E38F9BB21BB9B4F84630A0
:101720009BB25BB323689A6812F0020F04D0E28F79
:1017300092B20AB1002EB4D123689A6812F0010F58
:10174000DFD0B4F8462092B2002ADAD0B4F84620AE
:1017500092B2012AC8D9DA68236C1A80236C02334A
:101760002364B4F84630023B9BB2A4F84630B4F888
:1017700046309BB2012BB0D90126C2E73A46294632
:101780002046FFF737FD034620B1202323660123BF
:1017900000E00223012284F85D20002284F85C200E
:1017A0001846BDE8F8830223F4E70223F2E7012399
:1017B000F0E70123EEE70323ECE70323EAE7032343
:1017C000E8E70223ECE70000002800F0DA8170B5BA
:1017D00082B00446036813F0010F29D0A74B9B6821
:1017E00003F00C03042B1AD0A44B9B6803F00C03EA
:1017F000082B0FD06368B3F5803F40D0002B54D145
:101800009E4B1A6822F480321A601A6822F48022F1
:101810001A6039E0994B5B6813F4800FEAD0974B5C
:101820001B6813F4003F03D06368002B00F0AB810A
:10183000236813F0020F74D0904B9B6813F00C0FC9
:101840005ED08E4B9B6803F00C03082B53D0E368EB
:10185000002B00F08980894A136843F0010313606C
:1018600000F02CFC0546854B1B6813F0020F72D16B
:1018700000F024FC401B0228F5D9032088E17F4AB0
:10188000136843F48033136063682BB300F016FCD5
:1018900005467A4B1B6813F4003FC9D100F00EFCDB
:1018A000401B6428F5D9032072E1B3F5A02F09D0BD
:1018B000724B1A6822F480321A601A6822F480226D
:1018C0001A60E1E76D4B1A6842F480221A601A68C8
:1018D00042F480321A60D7E700F0F0FB0546674B10
:1018E0001B6813F4003FA3D000F0E8FB401B642802
:1018F000F5D903204CE1614B5B6813F4800FA6D14E
:101900005E4B1B6813F0020F03D0E368012B40F01D
:101910003C815A4A136823F0F803216943EAC10362
:101920001360236813F0080F46D0636983B3534AEA
:10193000536F43F00103536700F0C0FB05464F4B64
:101940005B6F13F0020F37D100F0B8FB401B022889
:10195000F5D903201CE1494A136823F0F8032169F3
:1019600043EAC1031360DCE7444A136823F0010330
:10197000136000F0A3FB0546404B1B6813F0020FF9
:10198000CFD000F09BFB401B0228F5D90320FFE0DD
:101990003A4A536F23F00103536700F08FFB05466B
:1019A000364B5B6F13F0020F06D000F087FB401B35
:1019B0000228F5D90320EBE0236813F0040F7DD053
:1019C0002E4B1B6C13F0805F1ED12C4B1A6C42F017
:1019D00080521A641B6C03F080530193019B012514
:1019E000274B1B6813F4807F10D0A368012B21D0F4
:1019F000002B37D1214B1A6F22F001021A671A6FA0
:101A000022F004021A671AE00025E9E71C4A13686D
:101A100043F48073136000F051FB0646184B1B68BB
:101A200013F4807FE1D100F049FB801B6428F5D9D5
:101A30000320ADE0114A136F43F001031367A3685D
:101A400053B300F03BFB06460C4B1B6F13F0020F29
:101A500033D100F033FB801B41F288339842F3D935
:101A6000032095E0052B0DD0044B1A6F22F00102E4
:101A70001A671A6F22F004021A67E0E70038024082
:101A800000700040444B1A6F42F004021A671A6F4C
:101A900042F001021A67D2E700F010FB06463E4B07
:101AA0001B6F13F0020F08D000F008FB801B41F2FF
:101AB00088339842F3D903206AE0F5B9A369002B73
:101AC00065D0354A926802F00C02082A62D0022BD7
:101AD00019D0314A136823F08073136000F0EEFAD6
:101AE00004462D4B1B6813F0007F48D000F0E6FA47
:101AF000001B0228F5D903204AE0274A136C23F083
:101B000080531364DAE7244A136823F08073136068
:101B100000F0D4FA0546204B1B6813F0007F06D076
:101B200000F0CCFA401B0228F5D9032030E0E3692D
:101B3000226A1343626A43EA8213A26A5208013A94
:101B400043EA0243E26A43EA0263226B43EA027316
:101B5000114A5360136843F08073136000F0AEFACB
:101B600004460D4B1B6813F0007F06D100F0A6FA67
:101B7000001B0228F5D903200AE0002008E000201D
:101B800006E001207047012002E0012000E0002073
:101B900002B070BD0120FBE7003802402F4B9B686C
:101BA00003F00C03082B01D02D48704770B52B4B68
:101BB0005A6802F03F025B6813F4800F2AD0274B6B
:101BC0005868C0F388100546002643011B1A66EBCF
:101BD0000604A10141EA93619801C01A61EB040176
:101BE000CB0043EA5073C4001946601946EB01016B
:101BF0008B0243EA90538402204619463346FEF78F
:101C00006FFB164B5B68C3F3014301335B00B0FB12
:101C1000F3F070BD114B5868C0F3881005460026DC
:101C200043011B1A66EB0604A10141EA9361980186
:101C3000C01A61EB0401CB0043EA5073C40019469B
:101C4000601946EB01018B0243EA9053840220465F
:101C500019463346FEF744FBD3E700BF0038024085
:101C60000024F400002800F09F8070B50446524B19
:101C70001B6803F00F038B420BD24F4A136823F00B
:101C80000F030B431360136803F00F038B4240F004
:101C90008D80236813F0020F17D013F0040F04D0C7
:101CA000464A936843F4E0539360236813F0080FA7
:101CB00004D0424A936843F4604393603F4A936878
:101CC00023F0F003A068034393600D46236813F0EC
:101CD000010F31D06368012B20D0022B25D0374A69
:101CE000126812F0020F63D034498A6822F00302AE
:101CF00013438B6000F0E2F90646304B9B6803F01B
:101D00000C036268B3EB820F16D000F0D7F9801B8A
:101D100041F288339842F0D9032044E0274A126800
:101D200012F4003FE0D101203DE0244A126812F095
:101D3000007FD9D1012036E01F4B1B6803F00F0351
:101D4000AB420AD91C4A136823F00F032B431360DC
:101D5000136803F00F03AB422CD1236813F0040F78
:101D600006D0164A936823F4E053E1680B4393606E
:101D7000236813F0080F07D0104A936823F46043D8
:101D8000216943EAC1039360FFF708FF0B4B9B688F
:101D9000C3F303130A4AD35CD8400A4B18600020EF
:101DA00000F04EF9002070BD012070470120FAE7D5
:101DB0000120F8E70120F6E7003C0240003802402D
:101DC000745F00081800002000230F2B00F2E2804F
:101DD000F0B482B039E0092200E00022B2403A4378
:101DE00002346D4E46F824206C4A1468EA4302EA35
:101DF00004064F6817F4803F01D045EA0406674C9B
:101E00002660646802EA04064F6817F4003F01D0B8
:101E100045EA0406614C6660A46802EA04064F685D
:101E200017F4801F01D045EA04065C4CA660E46804
:101E300022404E6816F4001F01D045EA0402574CB8
:101E4000E26001330F2B00F2A28001229A400C685D
:101E500004EA0205AA42F4D14C68122C18BF022CE5
:101E600010D1DE08083650F826C003F00704A7009A
:101E70000F24BC402CEA040C0C69BC4044EA0C045E
:101E800040F8264004685F000326BE40F64306EA99
:101E9000040C4C6804F00304BC4044EA0C040460E5
:101EA0004C6804F1FF3C112C18BFBCF1010F01D9A3
:101EB000122C11D1846806EA040CCC68BC4044EAB8
:101EC0000C048460446824EA020C4C68C4F30012D9
:101ED0009A4042EA0C024260C26816408A68BA40E0
:101EE0003243C2604A6812F0805FAAD02C4A546C18
:101EF00044F480445464526C02F480420192019A8A
:101F00009C08A61C244A52F8267003F0030296008F
:101F10000F22B24027EA0207224A90423FF45DAF07
:101F200002F58062904222D002F58062904220D079
:101F300002F5806290421ED002F5806290421CD071
:101F400002F5806290421AD002F58062904218D069
:101F500002F58062904216D002F58062904214D061
:101F600002F5806290423FF436AF0A2236E7012242
:101F700034E7022232E7032230E704222EE705226B
:101F80002CE706222AE7072228E7082226E702B0E4
:101F9000F0BC7047704700BF00380140003C014072
:101FA00000380240000002400369194201D00120BC
:101FB0007047002070470AB1816170470904816150
:101FC0007047000010B582B01B4B1A6C42F0805273
:101FD0001A641B6C03F080530193019B174A13682A
:101FE00043F48033136000F069F80446134B5B68D8
:101FF00013F4803F08D100F061F8001BB0F57A7F40
:10200000F4D9032002B010BD0C4A136843F4003326
:10201000136000F053F80446084B5B6813F4003F6C
:1020200007D100F04BF8001BB0F57A7FF4D90320FC
:10203000E8E70020E6E700BF0038024000700040FB
:1020400010B504460E4B18784FF47A73B3FBF0F3D7
:102050000C4A1068B0FBF3F0FFF722F868B90F2CB8
:1020600001D901200AE0002221464FF0FF30FEF79F
:10207000E5FF054B1C60002000E0012010BD00BF03
:1020800010000020180000201400002008B50320D4
:10209000FEF7C2FF0020FFF7D3FFFEF7A5FF0020E9
:1020A00008BD0000034A1168034B1B780B44136002
:1020B000704700BF9405002010000020014B1868F5
:1020C000704700BF9405002038B50446FFF7F6FFBF
:1020D0000546B4F1FF3F02D0044B1B781C44FFF7C8
:1020E000EDFF401BA042FAD338BD00BF1000002016
:1020F00010B40F4AD2F8883043F47003C2F8883025
:102100000C4B196841F001011960002098601C68AF
:1021100009492140196009495960196821F4802151
:102120001960D8604FF0006393605DF8044B70470E
:1021300000ED00E000380240FFFFF6FE1030002402
:1021400038B504460D46C3680020984763680020F0
:10215000984704480570236801219847E3680120E7
:10216000984738BDB40000202DE9F84306460F46D5
:1021700015469846DDF820902A21FFF7E1FF3B0A3B
:102180001A4C2370FBB263704744013F3F0AA770AB
:102190004344DBB2DFF858800427C8F80070013BE5
:1021A000E3703368394620469847736801209847A2
:1021B0002B213046FFF7C4FF2B0A2370EBB263706C
:1021C0004D44013D2D0AA57099445FFA89F9C8F87C
:1021D000007009F1FF3984F80390336839462046CE
:1021E0009847736801209847BDE8F883B400002041
:1021F00034030020C185704701867047C269022AF6
:1022000014BF00230123002A08BF01230BB1F020D3
:1022100070474FF4A0707047C269022A14BF0023B0
:102220000123002A08BF012313B14FF4A0707047A7
:10223000F020704730B583B00446FFF7DFFF054656
:102240002046FFF7E9FF00902B460022114620466A
:10225000FFF78AFF03B030BD2DE9F84F054643680C
:1022600001209847EB6801209847AB680020984709
:102270002B6901209847AB68012098472B690520FE
:10228000984701212846FFF75BFF2B6905209847F7
:1022900028212846FFF754FFCF212846FFF750FF9B
:1022A000C74C4FF0000884F8008083236370C54F4B
:1022B0004FF00309C7F800903023A3702B684946FC
:1022C000204698476B6801209847ED212846FFF784
:1022D00037FF4FF06403237084F801901223A3703A
:1022E00004233B608123E3702B6804212046984738
:1022F0006B6801209847E8212846FFF721FF8523D6
:10230000237001266670C7F800907923A3702B68AC
:102310004946204698476B6830469847CB21284667
:10232000FFF70EFF392323702C23637084F802809B
:102330003423E3704FF0050BC7F800B04FF00209EB
:1023400084F804902B685946204698476B683046BD
:102350009847F7212846FFF7F3FE202323702B68C8
:102360003146204698476B6830469847EA21284610
:10237000FFF7E6FE84F80080C7F8009084F801803B
:102380002B684946204698476B6830469847C021DD
:102390002846FFF7D5FE4FF0260A84F800A02B68E8
:1023A0003146204698476B6830469847C1212846F9
:1023B000FFF7C6FE4FF0110323702B68314620460D
:1023C00098476B6830469847C5212846FFF7B8FE06
:1023D00035232370C7F800903E2363702B6849466D
:1023E000204698476B6830469847C7212846FFF734
:1023F000A7FEBE2323702B683146204698476B68A2
:102400003046984736212846FFF79AFE4823237026
:102410002B683146204698476B68304698473A21EA
:102420002846FFF78DFE552323702B683146204642
:1024300098476B6830469847B1212846FFF780FEE1
:1024400084F80080C7F800901B2363702B6849460E
:10245000204698476B6830469847F2212846FFF798
:102460006FFE082323702B683146204698476B681F
:102470003046984751462846FFF762FE26702B6883
:102480003146204698476B6830469847E0212846F9
:10249000FFF756FE4FF01F0323701A2363704FF0AF
:1024A0001801A1704FF00A0A84F803A04FF00F0042
:1024B0002071062363714523A3718723E3713223BF
:1024C000237284F809A04FF00703A37284F80B90DD
:1024D000237384F80DB00F20386084F80E802B68C9
:1024E0000146204698476B6830469847E1212846C8
:1024F000FFF726FE84F80080252363704FF027093C
:1025000084F8029084F803B01023237109236371C7
:102510003A23A3717822E2714D22227284F809B025
:102520004FF01801A1720D22E272382222736373F8
:102530000F2139604FF01F02A2732B682046984785
:102540006B68304698472846FFF774FEB721284647
:10255000FFF7F6FD4FF0070323702B683146204646
:1025600098476B6830469847B6212846FFF7E8FD44
:1025700084F800A08223637084F8029004233B60F7
:1025800084F803802B680421204698476B68304606
:10259000984711212846FFF7D3FD6B6830469847CE
:1025A0002B696420984729212846FFF7C9FD6B68ED
:1025B000304698472B6964209847BDE8F88F00BFE4
:1025C000B40000203403002010B501604260836035
:1025D000029BC360039B03610023C3610362FFF797
:1025E0003BFE10BDF0B583B006461F46089C521A4C
:1025F000551C012300932B463A46FFF7B5FD2C21CD
:102600003046FFF79DFD00230E4A1360AB420CDA03
:102610004FEA242C0B4807687A1C0B4901F807C0C5
:10262000023707608C540133F0E73368054A11889C
:10263000054898477368012098473046FFF7FAFD30
:1026400003B0F0BD34030020B4000020F0B583B027
:102650000646089C9B1A5D1C00950123FFF784FD2C
:102660002C213046FFF76CFD00230F4A1360AB426C
:102670000CDA4FEA242C0C4807687A1C0B4901F845
:1026800007C0023707608C540133F0E73368064A0D
:102690001188064898477368012098473046FFF72D
:1026A000C9FD03B0F0BD00BF34030020B40000201A
:1026B00038B504460D46C1613621FFF741FD032DB3
:1026C00006D8DFE805F0021014180D4B48221A70E6
:1026D000236801210A4898476368012098472046EB
:1026E000FFF7A8FD38BD064B28221A70F0E7044B0F
:1026F00088221A70ECE7024BE8221A70E8E700BF64
:10270000B40000202DE9F04705468A4691469846D8
:102710002A21FFF715FD4FEA2A23194C2370194F80
:1027200002263E6084F801A02B6831462046984777
:102730006B68012098472B212846FFF701FD4FEADF
:10274000292323703E6084F801902B68314620468F
:1027500098476B68012098472C212846FFF7F0FC2A
:102760004FEA282323703E6084F801802B683146AD
:10277000204698476B6801209847BDE8F08700BF66
:10278000B400002034030020F0B583B00546FFF705
:1027900035FD471E2846FFF73FFD06460024B4429C
:1027A00009DA2B8E009323463A4600212846FFF78C
:1027B00019FF0134F3E703B0F0BD2DE9F04F85B008
:1027C00003908B469246DDF838905D42C3F10103D9
:1027D0005C0000260AE02346A54204DA01356C00BD
:1027E00001341C4400E01C46002D21DCAAEB060746
:1027F00006EB0A08CDF8009043463A46ABEB0501DC
:102800000398FFF723FFCDF8009043463A4605EBC7
:102810000B010398FFF71AFFA642DCDB01367300B9
:1028200001332344EE42D7D1A542D5DB0024D3E7C0
:1028300005B0BDE8F08F2DE9F04F85B003900C4650
:1028400015461E460E9FBB1A721A15D0002A24DDAB
:102850004FF0010823B3002B36DD4FF0010902FBD6
:1028600008F203FB09F34FEA420A4FEA430B9A428C
:1028700047DBABEB02072BE0AF4206DD0F9B00937B
:102880003B462A46FFF7E2FE38E00F9B00932B46BB
:102890003A460398FFF7DAFE30E04FF0FF38D9E709
:1028A000A64208DD0F9B00932B4632462146039833
:1028B000FFF798FE22E00F9B00932B4622463146FD
:1028C0000398FFF78FFE19E04FF0FF39C7E75F4429
:1028D000B4420DD00F9B2A4621460398FFF712FF02
:1028E0004444002FF3DBABEB0A031F444D44EFE7F6
:1028F0000F9B2A4621460398FFF704FF05B0BDE869
:10290000F08FAAEB030600E05644BD420DD00F9BAA
:102910002A4621460398FFF7F5FE4D44002EF3DBCF
:10292000AAEB0B031E444444EFE70F9B2A462146C3
:102930000398FFF7E7FEE1E72DE9F04383B0814616
:10294000884614461F460A9D0B9EAC4208DA009644
:1029500023463A4641464846FFF744FE0134F4E731
:1029600003B0BDE8F083016242627047A3F11F0229
:10297000602A00F291802DE9F04F83B01C46054695
:10298000D0F814A09AF800709AF801609AF80290B2
:102990009AF80380036A03EB060BFFF72FFC8345CD
:1029A00010D900232B626B6A03EB090BC5F824B026
:1029B0002846FFF731FC9AF80230C31A9B4501D331
:1029C00000236B62CDF8009033466A6A296A284674
:1029D000FFF7CAFB2C212846FFF7B2FB6A69A4F176
:1029E000200307FB03F30433D71812F803A00024D5
:1029F00037E0EB8DDFF8A8C0DCF800E00EF1010154
:102A000026481B0A00F80E30EB8D0EF1020ECCF8B2
:102A100000E043540132B2421DD2C4F3C40308FBA8
:102A200002330133F95C04F00700012383401942AB
:102A3000DFD12B8EDFF868C0DCF800E00EF1010179
:102A400016481B0A00F80E302B8E0EF1020ECCF841
:102A500000E04354DEE72B68114A11880F4898477D
:102A600001344C4503D200220D4B1A60D3E76B684A
:102A7000012098472846FFF7DDFB0AF10203B34225
:102A800006D22B6A534402332B6203B0BDE8F08FA9
:102A90002B6A33442B62F8E7704700BFB400002074
:102AA00034030020F8B504460D460A290FD100234F
:102AB0000362466A4769BB781E444662FFF7ACFB77
:102AC000BB78C01A864207D30023636204E00B463A
:102AD000426A016AFFF74AFF2846F8BD0EB410B5F6
:102AE00083B0044605AA52F8041B0192114800F075
:102AF0007BFB114B1860002817DDB0F5207F12DC3E
:102B00000E4B00221A600D4B1B680B4A1068834263
:102B10000BDA084AD15C2046FFF7C4FF074A136866
:102B200001331360EFE74FF0FF3003B0BDE8104012
:102B300003B0704738030020BC030020B803002016
:102B40004161704770B504460D468369002098477F
:102B50000023022B01D80133FBE76369284698471D
:102B60000023022B01D80133FBE76369002098475B
:102B700006460023022B01D80133FBE763690020DE
:102B800098470546A3690120984745EA0620C0F307
:102B9000491070BDF8B507460D461446D121FFF720
:102BA000D1FF06460023022B01DC0133FBE7902115
:102BB0003846FFF7C7FF2E602060F8BD2DE9F041D1
:102BC00015681769E81BD5685669AD1B05FB00F54C
:102BD0009468E41B5068801B00FB14509861002827
:102BE00078D00C680D69601BD4685669A41B04FB7F
:102BF00000F48868401B5568AD1B05FB1040186049
:102C000014681669A01B8C680D69641B04FB00F432
:102C10000868401B9568AD1B05FB1040586015699E
:102C2000886800FB05F6D2F808E00F6907FB1E680C
:102C30005668D2F800C00CFB07F70C6804FB15754A
:102C4000D76807FB05F506FB085604FB0EF40CFBE2
:102C50001040546904FB006098604C684D69601B2B
:102C6000D4685669A41B04FB00F4C868401B55686F
:102C7000AD1B05FB1040D86014681669A01BCC681A
:102C80004D69641B04FB00F44868401B9568AD1B4C
:102C900005FB104018611569C86800FB05F4D2F8FF
:102CA00008E04F6907FB1E44166806FB07F74968F2
:102CB00001FB1575D76807FB05F5576807FB04543A
:102CC00001FB0EF106FB1010526902FB0040586137
:102CD000002000E00120BDE8F0812DE9F04F85B033
:102CE00005460C461646A1F10F0A4FF6FF770197ED
:102CF00000928B1E51460069FFF79DFD04F10F0BFA
:102D0000019700965B463246A11C2869FFF793FDA8
:102D1000A6F10F08B31E01970093234642462146B1
:102D20002869FFF788FD06F10F090197CDF800909B
:102D30002346B21C21462869FFF77DFDE31F47F6B5
:102D4000EF370197CDF8009002934A465146286923
:102D5000FFF771FDF21D0197CDF8009053460392E5
:102D600051462869FFF767FD0197CDF80080029B67
:102D7000424651462869FFF75EFD073E0197CDF8B0
:102D800000805346324651462869FFF754FD073408
:102D90000197CDF800905B464A4621462869FFF727
:102DA0004AFD0197CDF800905B46039A5946286981
:102DB000FFF741FD0197CDF800805B464246214672
:102DC0002869FFF738FD019700965B464246594651
:102DD0002869FFF730FD05B0BDE8F08F10B5039C02
:102DE000046141618261C361029B03622D234362DE
:102DF0008362C362D2240463BE2141638163C363DF
:102E0000036443648464C16401650120904710BD7C
:102E100008B5C3699847B0FA80F0400908BD0000C2
:102E200070B594B005460E4648220021684600F071
:102E300089F9FEB1002412AA13A92846FFF7AAFEB9
:102E400014AB03EB8403139A43F8502C04F10903E9
:102E500014AA02EB8303129A43F8502C0134E4B213
:102E6000EB69984708B9082CE5D9092C05D0002052
:102E700014B070BD05F10806DCE7009B019803441F
:102E8000029803444F4A82FB0310A0EBE370039BBC
:102E900004990B4405990B4482FB0341A1EBE371B8
:102EA000069B079C2344089C1C4482FB0423A3EB41
:102EB000E473441ACA1A1D1A002CB8BF6442002ACF
:102EC000B8BF5242002DB8BF6D42022CC8BF022AC3
:102ED00001DD022D71DC944246DAAC423DDDC318BF
:102EE00039D45B103360099A0A9B1A440B9B1A442D
:102EF000344B83FB0210A0EBE2700C9A0D990A444C
:102F00000E990A4483FB0241A1EBE2720F99109CD7
:102F10002144119C214483FB0143A3EBE173841AF8
:102F2000D11A1D1A002CB8BF64420029B8BF49420B
:102F3000002DB8BF6D42022CC8BF022901DD022D51
:102F40003DDC8C4229DAAC4220DDC3181CD45B1076
:102F5000736001208CE70133C3E7431802D45B1090
:102F60003360C0E70133FAE7AA4206DDC31802D492
:102F70005B103360B7E70133FAE7CB1802D45B107C
:102F80003360B0E70133FAE70133E0E7821802D497
:102F900052107260DDE70132FAE7A94206DDC3187C
:102FA00002D45B107360D4E70133FAE7D31802D47C
:102FB0005B107360CDE70133FAE7002058E700208B
:102FC00056E700BF56555555C16ED9B130B4426D64
:102FD0008368846DC56805FB04F403FB0242C46D7D
:102FE000224492FBF1F20260046E426E02FB05F293
:102FF00004FB0323826E134493FBF1F34360002030
:1030000030BC7047012070472DE9F04383B004467F
:103010000D4600F1240700F13C0800F154094B462D
:1030200042463946FFF7CAFD29462069FFF788FD69
:10303000002508E0F31D04EBC303009A5A60019ACF
:103040009A600135EDB2022D1FD82069FFF79CFB75
:103050000A2211462069FFF786FC12492069FFF712
:103060003DFD236A4FF4FA7098472E462B1D04EB62
:10307000C3039A6859682046FFF72FFE6946204629
:10308000FFF7CEFE0028F9D0D4E74B46424639463A
:103090002046FFF793FD2069FFF776FB03B0BDE8FC
:1030A000F08300BF845F0008DFF834D0002103E024
:1030B0000C4B5B58435004310B480C4B42189A425E
:1030C000F6D30B4A02E0002342F8043B094B9A4234
:1030D000F9D3FFF70DF800F011F8FDF7B1FC7047D8
:1030E00000000820E85F00080000002080000020A9
:1030F00080000020A8050020FEE7000070B50D4DFF
:103100000D4C641BA4100026A64209D10B4D0C4C9B
:1031100000F084FC641BA4100026A64205D170BDFB
:1031200055F8043B98470136EEE755F8043B9847BD
:103130000136F2E7E05F0008E05F0008E05F0008AA
:10314000E45F000802440346934200D1704703F84D
:10315000011BF9E7134B10B51C68A36B7BB9182052
:1031600000F04CF8104A114BA063C0E90023104B4B
:1031700083600B23838101220023C0E90423A16B18
:103180000C480A694B690C4C504304FB0300A2FB3A
:1031900004345A1C044444F10000C1E9042020F026
:1031A000004010BD1C0000200E33CDAB34126DE684
:1031B000ECDE05002DF451582D7F954C00B59BB0E9
:1031C000009104916FF0004105910291054903912E
:1031D000694600F01FF9009B00221A701BB05DF8D1
:1031E00004FB00BF0802FFFF13460A4601460248DF
:1031F0000068FFF7E3BF00BF1C000020024B014640
:10320000186800F051B800BF1C00002038B5054612
:10321000002945D051F8043C0C1F002BB8BFE4181E
:1032200000F0B2FB1F4A1368104633B963601460A4
:103230002846BDE8384000F0ADBBA3420CD9216858
:103240006218934204BF1A685B68636004BF521837
:1032500022600460ECE713465A680AB1A242FAD928
:1032600019685818A0420BD12068014458188242AE
:103270001960DDD1106852685A6001441960D7E7BF
:1032800002D90C232B60D3E7206821188A4204BF9F
:1032900011685268626004BF091821605C60C7E76A
:1032A00038BD00BFC0030020F8B5CD1C25F00305D4
:1032B00008350C2D38BF0C25002D064601DBA94230
:1032C00003D90C2333600020F8BD00F05DFB2149D9
:1032D0000A6814469CB9204F3B6823B92146304602
:1032E00000F01AFB38602946304600F015FB431CFD
:1032F00023D10C233360304600F04CFBE3E7236816
:103300005B1B17D40B2B03D923601C44256004E0FE
:103310006368A2420CBF0B605360304600F03AFB7A
:1033200004F10B00231D20F00700C21ACCD01B1A99
:10333000A350C9E722466468CCE7C41C24F0030408
:10334000A042E3D0211A304600F0E6FA0130DDD188
:10335000CFE700BFC0030020C40300202DE9F047E1
:103360008E689E4282460C469146984638D8B1F8FF
:103370000CC01CF4906F31D062692568096902EBBA
:1033800042026F1A02EBD272013355103B449D4248
:1033900038BF1D461CF4806F30D02946FFF784FFEC
:1033A000064650B90C23CAF80030A38943F0400305
:1033B000A3814FF0FF30BDE8F0873A46216900F065
:1033C000BBFAA38923F4906343F08003A3812661B1
:1033D00065613E44ED1B2660A5604646464500D922
:1033E000464632464946206800F0B4FAA3689B1B63
:1033F000A36023681E4426600020DCE72A4600F014
:10340000CFFA06460028E2D121695046FFF7FEFEBA
:10341000C8E700002DE9F04F1E468B891B069DB0C2
:1034200007460D4614460ED50B6963B94021FFF7D8
:103430003BFF2860286120B90C233B604FF0FF3030
:10344000C9E040236B610023099320238DF82930C4
:10345000DFF89C91039630238DF82A304FF0010A53
:1034600023461E4613F8012B0AB1252AF9D1B6EBE3
:10347000040B0BD05B46224629463846FFF76EFF09
:10348000013000F0A380099B5B4409933378002B43
:1034900000F09C8000234FF0FF32CDE90523013678
:1034A000049307938DF853301A933446052214F889
:1034B000011B4F48FCF7C4FE049BC0B9D90644BFAA
:1034C00020228DF853201A0744BF2B228DF8532059
:1034D00032782A2A13D0079A344600200A26214639
:1034E00011F8013B303B092B4BD970B914E0A0EB2C
:1034F00009000AFA00F0184304902646D5E7039A1B
:10350000111D12680391002A01DB079204E0524268
:1035100043F002030792049323782E2B0CD1637897
:103520002A2B33D1039B1A1D1B680392002BB8BFB3
:103530004FF0FF33023405932E4E2178032230469C
:10354000FCF77EFE38B14023801B03FA00F0049B99
:1035500003430134049314F8011B27488DF8281005
:103560000622FCF76DFE002838D0244B13BB039BCA
:10357000073323F0070308330393099B434409935C
:103580006EE706FB023201200C46A8E70023013457
:10359000059319460A26204610F8012B303A092ACD
:1035A00003D9002BC8D00591C6E706FB01210123F2
:1035B0000446F0E703AB00932A46114B04A93846B2
:1035C000AFF30080B0F1FF3F8046D6D1AB895B06F8
:1035D0003FF534AF09981DB0BDE8F08F03AB009301
:1035E0002A46074B04A9384600F082F8EAE700BFF4
:1035F000A45F0008AA5F0008AE5F0008000000009A
:103600005D3300082DE9F04791461F468A680B6933
:10361000DDF820809342B8BF1346C9F8003091F816
:10362000432006460C4612B10133C9F80030236826
:10363000990642BFD9F800300233C9F80030256836
:1036400015F0060507D104F1190AE368D9F800203E
:103650009B1AAB4228DC94F843302268003318BF31
:10366000012392062DD404F1430239463046C04767
:10367000013020D02368E568D9F8002003F0060364
:10368000042B08BFAD1AA36822690CBF25EAE575B3
:1036900000259342C4BF9B1AED184FF000091A345D
:1036A0004D451AD1002008E00123524639463046E4
:1036B000C047013003D14FF0FF30BDE8F08701353E
:1036C000C3E7E1185A1C302081F84300224494F8E3
:1036D000451082F843100233C5E7012322463946DC
:1036E0003046C0470130E6D009F10109D8E70000B3
:1036F0002DE9F04306460C4601F14300097E85B0F2
:103700006E29984617460C9B00F0BA8024D863298E
:1037100039D00AD8002900F0C380582900F09180E0
:1037200004F1420584F8421035E0642901D069298A
:10373000F6D125681A6815F0800F02F104012CD02B
:1037400012681960002A03DA2D23524284F84330AC
:10375000DFF8BCC10A233FE0732900F0A58008D838
:103760006F2921D07029DBD1226842F0200222602B
:1037700003E0752918D07829D2D1782284F8452021
:10378000DFF890C161E01A68111D1960136884F8B0
:10379000423004F14205012393E01268196015F0EC
:1037A000400F18BF12B2CDE7D4F800C01A681CF061
:1037B000800F02F104051D6001D0126803E01CF0C7
:1037C000400FFAD01288DFF848C16F290CBF0823D8
:1037D0000A23002184F843106568A560002DA2BF6C
:1037E000216821F0040121600AB9002D46D0054668
:1037F000B2FBF3F103FB112E93421CF80EE005F827
:1038000001ED39D9082B0BD12368DA0708D52369D4
:1038100062689A42DEBF302305F8013C05F1FF35AE
:10382000401B2061CDF800803B4603AA214630466C
:10383000FFF7E8FE013049D14FF0FF3005B0BDE899
:10384000F083DFF8CCC084F845101D68216855F876
:10385000042B1D600D060BD5CD0744BF41F02001A0
:1038600021601AB9236823F0200323601023B0E7F6
:103870004B0648BF92B2EFE70A46B9E70546C1E7F3
:103880001A68D4F800C06169151D1D601CF0800F16
:10389000136801D0196003E01CF0400FFAD01980C2
:1038A000002323610546BDE71A68111D19601568DC
:1038B000626800212846FCF7C3FC08B1401B606029
:1038C00063682361002384F84330ABE723692A4609
:1038D00039463046C0470130AED023689B0713D429
:1038E000E068039B9842B8BF1846A7E701234A4601
:1038F00039463046C04701309ED00135E368039A0F
:103900009B1AAB42F2DCEBE7002504F11909F5E75D
:10391000B55F0008C65F000838B5064C00230546B1
:103920000846236000F06CF8431C02D1236803B101
:103930002B6038BD980500200A44914200F1FF3306
:1039400000D1704710B511F8014B03F8014F9142B7
:10395000F9D110BD884210B501EB020302D98342B0
:103960001C4607D8421E994208D011F8014B02F8B4
:10397000014FF8E783189A1A9A4200D110BD14F843
:10398000011D03F8011DF7E7014800F02FB800BF43
:10399000A0050020014800F02AB800BFA0050020C3
:1039A000F8B5074614460E4621B91146BDE8F84061
:1039B000FFF77ABC22B9FFF729FC25462846F8BD57
:1039C00000F016F8A0420FD221463846FFF76CFCF3
:1039D00005460028F2D031462246FFF7ADFF3146BA
:1039E0003846FFF713FCE9E73546E7E770477047CD
:1039F00051F8043C181F002BBCBF0B58C01870476F
:103A0000044A05491368002B08BF0B461844106090
:103A100018467047C8030020A8050020F8B500BF6D
:103A2000F8BC08BC9E467047F8B500BFF8BC08BC9F
:043A30009E467047F7
:103A3400190C0C0207000000000000000000000048
:103A44000000000000000000000000000002000070
:103A54007F010000000000000000000000000000E2
:103A64000000000000000307000000070000000041
:103A7400000000000000000000000000000000073B
:103A84002400A4017C00A7017C002700240000007E
:103A94000000000000000000060000CE001101FF3D
:103AA400031101E20000000000000000000000001B
:103AB400000A00000E0011001101CE003800E600DB
:103AC40011011001E00000000000080000E0001EE9
:103AD4000111012901C600A000000100000000003E
:103AE40000000002000007000000000000000000C9
:103AF400000000000000000000000000040000F8C6
:103B040000060301040000000000000000000000A3
:103B140000000000000301040603F8000000000098
:103B2400000000000000000000000000000005028A
:103B3400000A0007000A0002000000000000000064
:103B440000000000000000060000100010007C00CF
:103B54001000100000000000000000000000000041
:103B64000200000007000000000000000000000048
:103B740000000000000000000003200020002000DE
:103B84000000000000000000000000000000000031
:103B9400000002000000010000000000000000001E
:103BA40000000000000000000000000380017C0011
:103BB40003000000000000000000000000000000FE
:103BC40000000000060000FE00010101010101FEE9
:103BD40000000000000000000000000000060000DB
:103BE40004000200FF0100000000000000000000CB
:103BF40000000000000006000002018101410131C3
:103C0400010E01000000000000000000000000069A
:103C140000008200010111011101EE00000000000A
:103C2400000000000000000006000060005800468C
:103C340000FF014000000000000000000000000040
:103C4400000600009C000B0109010901F1000000BD
:103C540000000000000000000000060000FE00114B
:103C64000109010901F20000000000000000000049
:103C74000000000600000100C10139000700010036
:103C8400000000000000000000000000060000EE3C
:103C940000110111011101EE0000000000000000FC
:103CA40000000000000600009E0021012101110116
:103CB400FE00000000000000000000000000020000
:103CC40000040100000000000000000000000000EB
:103CD4000000000000000002000040070000000097
:103CE40000000000000000000000000000000000D0
:103CF40006000010002800280044004400000000D2
:103D040000000000000000000006480048004800D1
:103D140048004800480000000000000000000000C7
:103D240000000600004400440028002800100000A1
:103D34000000000000000000000000060000060073
:103D44000100610111000E000000000000000000ED
:103D5400000000000C0000F0010C02E2041209094A
:103D6400090909F109190902058604780207800185
:103D740070002E0021002E00700080010000000061
:103D8400000000000000070000FF011101110111F3
:103D9400011101FE00000000000000000000000806
:103DA40000007C0082000101010101018200440045
:103DB4000000000000000000080000FF01010101F4
:103DC400010101010182007C0000000000000000EC
:103DD40000070000FF01110111011101110111017E
:103DE40000000000000000000000060000FF0111B8
:103DF400001100110001000000000000000000009C
:103E04000000000800007C00820001010101110192
:103E1400920074000000000000000000080000FF91
:103E24000110001000100010001000FF010000003D
:103E34000000000000020000FF010000000000007C
:103E4400000000000000000000000000000005C0A9
:103E540000000100010001FF00000000000000005C
:103E640000000000000000080000FF012000100016
:103E7400280044008200010100000000000000004E
:103E8400070000FF01000100010001000100010022
:103E9400000000000000000000080000FF01060010
:103EA4007800800178000600FF0100000000000097
:103EB4000000080000FF0102000C001000600080F8
:103EC40000FF0100000000000000000800007C006A
:103ED400820001010101010182007C000000000058
:103EE40000000000070000FF011100110011001183
:103EF400000E0000000000000000000000080000A8
:103F04007C00820001014101410182007C0100002A
:103F1400000000000000080000FF01110011001162
:103F2400003100D1000E0100000000000000000775
:103F34000000CE001101110111011101E600000081
:103F4400000000000000000007010001000100FF64
:103F54000101000100010000000000000000000059
:103F6400000800007F0080000001000100018000C3
:103F74007F0000000000000000000703001C006038
:103F840000800160001C000300000000000000002D
:103F94000000000B07007800800170000E00010093
:103FA4000E00700080017C0003000000070101C6C0
:103FB40000280010002800C60001010000000000D5
:103FC400000000000007010006000800F0010800DE
:103FD40006000100000000000000000000000700CF
:103FE400018101610111010D0103010101000000C2
:103FF40000000000000000030000FF0701040000AF
:1040040000000000000000000000000000000000AC
:104014000303007C00800100000000000000000099
:10402400000000000000000000020104FF0700007F
:10403400000000000000000000000000000000007C
:10404400000005180006000100060018000000002A
:10405400000000000000000000000007000400044D
:104064000004000400040004000400000000000038
:104074000000000003000001000200000000000036
:104084000000000000000000000000000006000026
:10409400C80024012401A400F8010000000000006D
:1040A400000000000000060000FF01880004010475
:1040B40001F80000000000000000000000000005FE
:1040C4000000F80004010401880000000000000062
:1040D4000000000000000000060000F800040104D5
:1040E400010801FF010000000000000000000000C2
:1040F40000060000F800240124012401B800000097
:1041040000000000000000000000040400FE01059F
:10411400000100000000000000000000000000009A
:10412400000000060000F804040504058804FC03EC
:10413400000000000000000000000000060000FF76
:1041440001080004000400F8010000000000000061
:104154000000000000020000FD010000000000005B
:104164000000000000000000000000000000020049
:1041740004FD030000000000000000000000000037
:1041840000000000000000060000FF0120003000D5
:10419400C80004010000000000000000000000004E
:1041A400020000FF01000000000000000000000009
:1041B4000000000000000000000A0000FC010800EC
:1041C40004000400F801080004000400F8010000E1
:1041D4000000060000FC01080004000400F80100CF
:1041E4000000000000000000000000060000F800CD
:1041F400040104010401F8000000000000000000B4
:1042040000000000060000FC07880004010401F817
:104214000000000000000000000000000006000094
:10422400F800040104018800FC07000000000000FD
:10423400000000000000040000FC0108000400006D
:104244000000000000000000000000000000000664
:1042540000009800240124012401C800000000008B
:104264000000000000000000030400FF010401003E
:10427400000000000000000000000000000000003A
:1042840000060000FC00000100010001FC01000028
:1042940000000000000000000000050C0070008019
:1042A4000170000C0000000000000000000000008D
:1042B400000000090C007000800170000C00700008
:1042C400800170000C00000000000000050401D80B
:1042D400002000D8000401000000000000000000DD
:1042E4000000000000050C007004800370000C0046
:1042F40000000000000000000000000000000504B1
:1043040001C40124011C010401000000000000009C
:1043140000000000000000032000DE030104000090
:104324000000000000000000000000000000000089
:10433400020000FF07000000000000000000000071
:104344000000000000000000000400000104DE037F
:104354002000000000000000000000000000000039
:1043640000000700002000100010002000200010B2
:104374000000000000000000000000080000FE0132
:1043840002010201020102010201FE01000000001B
:1043940000000000491817030D0000000000000091
:1043A4000000000000000000000000000000000009
:1043B40000000000000000000000000000000000F9
:1043C40000000000000000000000000000000000E9
:1043D40000000000000000000000000000000000D9
:1043E400000A00000000000000000200000300308A
:1043F40001000F00E003007C00001E00000200002A
:1044040000000000000000000000000000000000A8
:104414000000000000000000000000000000000098
:10442400000000000000000000000D00000000007B
:10443400000000000000000000004000007C0000BC
:104444000E00000200004000007C00000E0000028C
:104454000000000000000000000000000000000058
:104464000000000000000000000000000000000048
:104474000000001100000000000200980380F80111
:10448400C07800C01E00C01F02E09903F8F801DEE6
:104494007800C61E00C21F00E01900F81800DE00F4
:1044A40000C6000002000000000000000000000040
:1044B40000000000000000000000000010000000E8
:1044C40000000000000000F00100F003E0800BF8A1
:1044D40001079CC3030C3B03068701E687011EC644
:1044E40000077E000E3C003E00003C00000000007F
:1044F40000000000000000000000000000000000B8
:104504000000000000160000000000000000000091
:104514000000000004000004E00106F883031CC24C
:1045240001066200823100E218007E0C001CC60302
:1045340080F307C03904600C0430040318E4010C50
:10454400FC00061000020000000000000000110042
:10455400000000000000C00000F00100F803000C9F
:1045640003000603600203F80303DC87018C8F0158
:10457400C6FC00C6F0006EF0033E98011C0C01005E
:104584000400000000000000000000000000000023
:10459400000000000000000900000000000000000E
:1045A400000000000000004000007C00000E00003D
:1045B40002000000000000000000000000000000F5
:1045C40000000000000000000000000000000000E7
:1045D40000000000000000000000000000000000D7
:1045E40017000000000000000000000000000000B0
:1045F40000000000000000000000000000000000B7
:10460400000000000000000000000000F81F001F70
:104614003C800310E000003000001800000C000093
:104624000600000300000000000900001800000C50
:1046340000000600000300C00102F0000F3E00FE6F
:104644000F006000000000000000000000000000F7
:104654000000000000000000000000000000000056
:104664000000000000000000000000000000000046
:1046740000000E0000000000000000000000000028
:104684000000900000D800005800003000003C00FA
:1046940000FE0000520000180000080000000000A6
:1046A4000000000000000000000000000000000006
:1046B40000000000000000000000001000000000E6
:1046C40000000000000004000006000006000006D0
:1046D4000000C60000FE00003F00E00700F00600F6
:1046E400100600000600000600000600000000009E
:1046F40000000000000000000000000000000000B6
:10470400000000000500000000001000000A000086
:10471400070000010000000000000000000000008D
:104724000000000000000000000000000000000085
:104734000000000000000000000000000000000075
:10474400000000000000000000000000000900005C
:10475400000000000000000018000018000018000D
:1047640000180000180000180000000000000000FD
:104774000000000000000000000000000000000035
:104784000000000000000000000000000000000025
:10479400000000000000050000000000000000020E
:1047A4000000030000010000000000000000000001
:1047B40000000000000000000000000000000000F5
:1047C40000000000000000000000000000000000E5
:1047D4000000000000000000000000000000000DC8
:1047E40000000200000300C00100F00000380000D7
:1047F4000E00000700C00100E000003800001E00A9
:10480400000600000200000000000000000000009C
:104814000000000000000000000000000000000094
:104824000000000000000000110000000000000073
:10483400000000F80100FF03C08703F00003380004
:10484400030C00030C800106C00106E000063800DA
:104854008E1F00FC0700780000000000000000002C
:104864000000000000000000000000000000000044
:104874000011000000000000000000000000000023
:104884000000000000000060000220C00330F801B6
:10489400103F00E80700FC00001E000002000000BA
:1048A4000000000000000000000000000000000004
:1048B40000000000000000000000110000000000E3
:1048C4000200000300800300C003206003303003B3
:1048D4001830030C1803040C03060C030606030625
:1048E4000301860100FE00007C00000000000000BF
:1048F40000000000000000000000000000000000B4
:104904000000001100000000000000400000E00171
:1049140000E0032000033000031800030C03030627
:10492400030106830186E700867E00FE1C007C00EE
:104934000010000000000000000000000000000063
:104944000000000000000000000000001100000052
:10495400002000003000003800003C000036000059
:104964003300803100C0300260F00330F801183F9A
:1049740000EC3700FC30001E0000020000000000C4
:104984000000000000000000000000000000000023
:1049940000000000001100000000000000400000C2
:1049A400E00100E103C00103F00103BE0003CE00F7
:1049B40003C68001C6C001C6E100C67F00861F0091
:1049C40006020006000002000000000000000000D3
:1049D40000000000000000000000000000001100C2
:1049E400000000000000000000F80100FF01C08783
:1049F40003F002033803039C01038C8101868101C7
:104A040086E300867F00061F001E00001C000018BD
:104A14000000000000000000000000000000000092
:104A24000000000000000011000000000000000071
:104A34000000000200800300E001047000063C0056
:104A4400060E00060700860100C600006600003658
:104A540000001E00000E000006000002000000001E
:104A64000000000000000000000000000000000042
:104A74001100000000000000C00000F80100FC0369
:104A8400000C03E00603F803039C03030C830106F4
:104A9400830106E700867F00FE3C007C00000800DE
:104AA4000000000000000000000000000000000002
:104AB40000000000000000000011000000000000E1
:104AC40000C00100C001008103E00703F00F0318D8
:104AD4000C030C0C030C8C0106C400066600063A99
:104AE400008E1F00FC0700F800000000000000001A
:104AF40000000000000000000000000000000000B2
:104B040000000A0000000000000000020000030092
:104B14000001800000C00000C00000000000000090
:104B24000000000000000000000000000000000081
:104B34000000000000000000000000000000000071
:104B44000000000000000000000000080000000059
:104B5400001000000A000007000001800000C000EF
:104B640000C0000000000000000000000000000081
:104B74000000000000000000000000000000000031
:104B84000000000000000000000000000000000021
:104B94000000000011000000000000000000000000
:104BA40000000000000700000F00000D00801D0041
:104BB400801900C03800C0300040700060200060E0
:104BC40000003000001000000000000000000000A1
:104BD40000000000000000000000000000100000C1
:104BE4000000000000000000000000180080180011
:104BF400C01800C01800C01800C01800C01800C0B9
:104C04001800C01800C01800C00000C00000000058
:104C14000000000000000000000000000000000090
:104C24000000000000000F00000000000000000071
:104C340000400000200000300020300070180060A8
:104C44001800E01800C00C00C00D008005008007AB
:104C54000000070000000000000000000000000049
:104C64000000000000000000000000000000001030
:104C74000000000000000000000000000000002010
:104C840000023020031838010C3C00040C00060616
:104C940000060300060100860100FE00007C0000FF
:104CA4000000000000000000000000000000000000
:104CB40000000000000000001700C00300F80F000F
:104CC4003E1E000738800130C0C07060F87130BCEF
:104CD400631806631803638C01618C8161C480606E
:104CE400C6C063C6E063C67933861F33868711C6A0
:104CF4008118CEC0080C700CFC3F04F00F000000BB
:104D0400000F00000200000300C00100E0000038B2
:104D140000001C00001E00801B00C0190060180069
:104D24003818001C1800061800FEFF03FEFF0300DD
:104D3400000000000000000000000000000000006F
:104D4400000000000000000000001000000000004F
:104D54000200C00300F803003F03E00703FC030361
:104D64001E03030603030603030603010683010669
:104D7400C700867E00FE3C003C00000000000000EE
:104D8400000000000000000000000000000000001F
:104D94000000001100000000780000FF01C0C701FE
:104DA400E080033000031800030C00030C0003062A
:104DB400800106800106C00006E0000630001E10D7
:104DC400007C0000780000000000000000000000EB
:104DD40000000000000000000000000012000000BD
:104DE40000000200C00300F803003F03E00703FCD7
:104DF40000031E000306000306000306800106806C
:104E04000106C0000660000E38009E1F00FC07006B
:104E1400700000000000000000000000000000001E
:104E24000000000000140000000000000000020068
:104E3400C00300F803003F03E00703FC03031E0361
:104E4400030603030603030603030603030603031F
:104E54000603010603000600000600000600000227
:104E6400000000000000000000000000000013002B
:104E7400000000000000000200C00300F801003F31
:104E840000E00700FC03001E030006030006030005
:104E940006030006030006030006030006000006DE
:104EA40000000600000200000000000000000000F6
:104EB40000000000000000140000000000000038A2
:104EC4000000FF00C0E701E0800130800318000308
:104ED4001800030C00030C000306040306860106F5
:104EE400860106860106C6000EFE001E3E007C06F4
:104EF4000078000000000000000000000000000036
:104F04001400000000000000000200C00300F801CB
:104F1400003F00E00700FC03001E03000203000042
:104F2400030000030000030200C30300FB01003F71
:104F340000E00700FC00001E00000200000000006A
:104F44000000000000000000000A00000000000053
:104F540000000200C00300F801003F00E00700FC6D
:104F640000001E000002000000000000000000001D
:104F7400000000000000000000000000000000002D
:104F8400000000000000000000000000000000001D
:104F940000000F00000000000000C00100E003005A
:104FA400A00300000300000300800100C00100789A
:104FB40000001F00E00700FC00001E0000020000CB
:104FC40000000000000000000000000000000000DD
:104FD40000000000000000000000001500000000B8
:104FE400000000000200C00300F801003F00E00FD1
:104FF40000FC0C001E0600020300800F00801D0050
:10500400C0780060E0013080031000021800000C3A
:105014000000060000020000020000000000000082
:10502400000000000D00000000000000000200C0AD
:105034000300F803003F03E00703FC00031E000322
:105044000200030000030000030000010000000050
:10505400000000000000000000000000000000004C
:105064000000000000000000000000000017000025
:105074000000000000000200C00300F801003F002F
:10508400E00700FC00001EF003FEFF03FE8F030098
:10509400C001007000003800000E00800702C0C18B
:1050A4000370F801383F00EE0700FE00001E000008
:1050B40002000000000014000000000000000002D4
:1050C40000C00300F801003F00E00700FC00001EE0
:1050D4000000FE0000F80F0000FF0100F00300C014
:1050E4000300F801003F00E00700FC00001E000080
:1050F4000200000000000000000000000000001496
:1051040000000000000000380000FF00C0C301E000
:1051140080033000031800030C00030C0003040098
:105124000306800106800106C00006C00006700068
:105134000E38003C0E00F80700E0010000000000FB
:105144000000000000000000120000000000000049
:10515400000200C00300F801003F00E00700FC0665
:10516400001E0600060600060600060600060600E7
:10517400060600060300860300FE01007C00000012
:10518400000000000000000000000000000000001B
:10519400001400000000000000380000FF00C0E719
:1051A40001E080033000031800030C00030C4003EB
:1051B40004600306C00106C00106C00306600706BA
:1051C40070020E38003C0E00F80700E001000000F9
:1051D40000000000000000000000130000000000B8
:1051E4000000000200C00300F801003F00E00700D7
:1051F400FC03001E0300060300060300060300066A
:105204000F00067F0006FB03868103860100FE0073
:10521400007C00000000000000000000000000000E
:105224000000001000000000000000F00100F00188
:10523400008003E00003F801039C03030C0303064E
:10524400030306830106870106C600067E003E3C72
:10525400003C00000000000000000000000000000E
:105264000000000000000000000000001100000029
:1052740000000004000006000206C00306F8010650
:105284003F00E60700FE00001E00000600000600C6
:1052940000060000060000060000060000020000F0
:1052A40000000000000000000000000000000000FA
:1052B40000000000001200000000000000F80100DF
:1052C400FF03E00703FC00031E00030200030000C9
:1052D4000300000300800100E000007800001F00CC
:1052E400E00700FC00001E000002000000000000B7
:1052F4000000000000000000000000000000110099
:105304000000000000FEFF03FEFF0300000300C0D6
:105314000100E000003800001C00000700800300CA
:10532400C001007000003800000E000006000002FA
:105334000000000000000000000000000000000069
:10534400000000000000001800000000000000E061
:1053540003F0FF03FEFF030EC001007000003800DD
:10536400000E00000700C00100E000003800001C2F
:10537400C003FEFF03FEBF031EC00100700000381F
:1053840000000E00800700E001007800001E00000D
:105394001600000200000200000300800100C000AB
:1053A4000060000030000638001E1800FC0C00E00D
:1053B4000700801F00807D00C0F00160C003300042
:1053C400023000001800000C00000600000200007B
:1053D40002000000000000000012000000000000B5
:1053E4000600003E0002F8C003E0FB01803F00001D
:1053F4000600000300800100C000006000003000CF
:10540400001800000C00000600000200000200006A
:105414000000000000000000000000000000000088
:1054240000001400000200800300C00300600300B9
:105434006003003003041803060C03060C0306067D
:1054440003060303860103860103C6000366000105
:105454003600003600001E00000E000002000000AE
:1054640000000000000000000000000C00007800B4
:10547400007E00C06700F861003F20E00700FC00E8
:10548400001E0000060000060000060000020000E6
:105494000000000000000000000000000000000008
:1054A40000000000000000000000000000000000F8
:1054B40000000000080000000000000000000000E0
:1054C4000000000080FF03FEFF037E0000000000D8
:1054D40000000000000000000000000000000000C8
:1054E40000000000000000000000000000000000B8
:1054F400000000000000000000000000000B00009D
:105504006000006000007800003E00C00704F8015D
:10551400063F00E60700FE00001E00000200000037
:105524000000000000000000000000000000000077
:105534000000000000000000000000000000000067
:105544000000000000000D0000000000000000004A
:10555400000000000200800300C001006000003869
:1055640000001C00000E0000FE0300FC030000000D
:105574000000000000000000000000000000000027
:105584000000000000000000000000000000001502
:105594000000600000600000600000600000600027
:1055A4000060000060000060000060000060000017
:1055B40060000060000060000060000060000060A7
:1055C4000000600000600000600000600000200037
:1055D40000000000000000000A00000000000000BD
:1055E40000000000000000000000000000000600B1
:1055F400000E00000E00000000000000000000008B
:105604000000000000000000000000000000000096
:105614000000000000000000000000000000000086
:10562400000E00000000000000C00100F003003282
:1056340003001B03801903C01801C09801C08C002B
:10564400C0EC03C0FC03C03F008007000000000062
:105654000000000000000000000000000000000046
:10566400000000000000000000000D000000000029
:105674000200C00300F80100BF01E00703FC0103BE
:105684009E0103C20001C08001C0C000C079008037
:105694001F000000000000000000000000000000E7
:1056A40000000000000000000000000000000000F6
:1056B4000000000C00000000000000F80100FE03E0
:1056C400000703800103800003C08001C0C001C043
:1056D4004100C0030080030000000000000000003F
:1056E40000000000000000000000000000000000B6
:1056F4000000000000000000000000001000000096
:1057040000000000F80100DE0300030380010380B1
:105714000003C08001C08002C0E003C0FF01003F5D
:1057240000E00700FC00001E000002000000000072
:105734000000000000000000000000000000000065
:1057440000000000000D00000000000000F801004F
:10575400FE03000F03800D03800C03C00C03C08CF8
:1057640001C0CC00C04D00800F0000030000000009
:105774000000000000000000000000000000000025
:1057840000000000000000000000000000000E0007
:10579400000000000000000280C003C0F801C03F08
:1057A40000E00700F80000DC0000C60000C60000AE
:1057B40006000006000002000000000000000000D7
:1057C40000000000000000000000000000000000D5
:1057D400000000000000000F00001000003800006E
:1057E4007800F86100FE6300076380016380013381
:1057F400C00039C0801EC0E00780FD01003F00C02A
:105804000700C000000000000000000000000000CD
:105814000000000000000000000000000000000084
:105824000E00000000000200C00300F801003F0069
:10583400E00700FC01009E0100C20000C00002C09D
:10584400C003C0F901C03F00800700000000000051
:105854000000000000000000000000000000000044
:105864000000000000000000000900000000000229
:1058740000C00300F801003F00C00700C400000698
:105884000000020000000000000000000000000012
:105894000000000000000000000000000000000004
:1058A40000000000000000000000000000000000F4
:1058B40000000900003800001E00C00700F80100C5
:1058C4003F00C00700C40000060000020000000002
:1058D40000000000000000000000000000000000C4
:1058E40000000000000000000000000000000000B4
:1058F40000000000000000000000000F0000000095
:10590400000200C00300F801003F00E01F00FC1883
:10591400001E3C0002E60100C203000302800100F5
:10592400C000004000004000000000000000000033
:105934000000000000000000000000000000000063
:10594400000000000900000000000200C00300F88D
:1059540001003F00E00700FC00001E000002000000
:105964000000000000000000000000000000000033
:105974000000000000000000000000000000000023
:1059840000000000000000000000000000140000FF
:105994000000000200C00300F801003F00C007003F
:1059A400C00100800000C00002C0C003C0F801C0F4
:1059B4003F00800700800100800000C00002C0C0DA
:1059C40003C0F801C03F0080070000000000000091
:1059D4000000000000000E00000000000200C003F0
:1059E40000F801003F00C00700C00100800100C0B2
:1059F4000000C00002C0C003C0F901C03F0080071E
:105A04000000000000000000000000000000000092
:105A14000000000000000000000000000000000E74
:105A240000000000000000000000F80100DE030098
:105A34000303800103800003C00001C08001C0C0D3
:105A440000C07900801F0000070000000000000073
:105A54000000000000000000000000000000000042
:105A640000000000000000000E00007800003E006E
:105A7400C00700F80100FF03C00703C00103800052
:105A840003C00001C08001C0E000C07F00801F008F
:105A940000030000000000000000000000000000FF
:105AA40000000000000000000000000000000000F2
:105AB400000E00000000000000F80100FE030007D3
:105AC40003800103800043C00071C0803EC0E00732
:105AD40080FF01003F00C00700C00000000000007C
